{
	"tests/Simple_storage_test.sol": {
		"TestsSuite": {
			"abi": [
				{
					"inputs": [],
					"name": "beforeEach",
					"outputs": [],
					"stateMutability": "nonpayable",
					"type": "function"
				},
				{
					"inputs": [],
					"name": "checkMsgSender",
					"outputs": [
						{
							"internalType": "bool",
							"name": "",
							"type": "bool"
						}
					],
					"stateMutability": "nonpayable",
					"type": "function"
				},
				{
					"inputs": [],
					"name": "checkMsgValue",
					"outputs": [
						{
							"internalType": "bool",
							"name": "",
							"type": "bool"
						}
					],
					"stateMutability": "payable",
					"type": "function"
				},
				{
					"inputs": [],
					"name": "initialValueShouldBe_0",
					"outputs": [
						{
							"internalType": "bool",
							"name": "",
							"type": "bool"
						}
					],
					"stateMutability": "nonpayable",
					"type": "function"
				},
				{
					"inputs": [],
					"name": "valueIsSet_100",
					"outputs": [
						{
							"internalType": "bool",
							"name": "",
							"type": "bool"
						}
					],
					"stateMutability": "nonpayable",
					"type": "function"
				}
			],
			"devdoc": {
				"kind": "dev",
				"methods": {},
				"version": 1
			},
			"evm": {
				"assembly": "    /* \"tests/Simple_storage_test.sol\":168:1037  contract TestsSuite {... */\n  mstore(0x40, 0x80)\n  callvalue\n  dup1\n  iszero\n  tag_1\n  jumpi\n  0x00\n  dup1\n  revert\ntag_1:\n  pop\n  dataSize(sub_0)\n  dup1\n  dataOffset(sub_0)\n  0x00\n  codecopy\n  0x00\n  return\nstop\n\nsub_0: assembly {\n        /* \"tests/Simple_storage_test.sol\":168:1037  contract TestsSuite {... */\n      mstore(0x40, 0x80)\n      jumpi(tag_1, lt(calldatasize, 0x04))\n      shr(0xe0, calldataload(0x00))\n      dup1\n      0x2b764781\n      eq\n      tag_2\n      jumpi\n      dup1\n      0x4cd3d5ca\n      eq\n      tag_3\n      jumpi\n      dup1\n      0x6331e7d4\n      eq\n      tag_4\n      jumpi\n      dup1\n      0x84b6fac5\n      eq\n      tag_5\n      jumpi\n      dup1\n      0xf60c7521\n      eq\n      tag_6\n      jumpi\n    tag_1:\n      0x00\n      dup1\n      revert\n        /* \"tests/Simple_storage_test.sol\":913:1035  function checkMsgValue() public payable returns (bool) {... */\n    tag_2:\n      tag_7\n      tag_8\n      jump\t// in\n    tag_7:\n      mload(0x40)\n        /* \"#utility.yul\":179:193   */\n      swap1\n      iszero\n        /* \"#utility.yul\":172:194   */\n      iszero\n        /* \"#utility.yul\":154:195   */\n      dup2\n      mstore\n        /* \"#utility.yul\":142:144   */\n      0x20\n        /* \"#utility.yul\":127:145   */\n      add\n        /* \"tests/Simple_storage_test.sol\":913:1035  function checkMsgValue() public payable returns (bool) {... */\n      mload(0x40)\n      dup1\n      swap2\n      sub\n      swap1\n      return\n        /* \"tests/Simple_storage_test.sol\":746:889  function checkMsgSender() public returns (bool) {... */\n    tag_3:\n      callvalue\n      dup1\n      iszero\n      tag_11\n      jumpi\n      0x00\n      dup1\n      revert\n    tag_11:\n      pop\n      tag_7\n      tag_13\n      jump\t// in\n        /* \"tests/Simple_storage_test.sol\":266:336  function beforeEach() public {... */\n    tag_4:\n      callvalue\n      dup1\n      iszero\n      tag_15\n      jumpi\n      0x00\n      dup1\n      revert\n    tag_15:\n      pop\n      tag_16\n      tag_17\n      jump\t// in\n    tag_16:\n      stop\n        /* \"tests/Simple_storage_test.sol\":389:526  function initialValueShouldBe_0() public returns (bool) {... */\n    tag_5:\n      callvalue\n      dup1\n      iszero\n      tag_18\n      jumpi\n      0x00\n      dup1\n      revert\n    tag_18:\n      pop\n      tag_7\n      tag_20\n      jump\t// in\n        /* \"tests/Simple_storage_test.sol\":573:713  function valueIsSet_100() public returns (bool) {... */\n    tag_6:\n      callvalue\n      dup1\n      iszero\n      tag_22\n      jumpi\n      0x00\n      dup1\n      revert\n    tag_22:\n      pop\n      tag_7\n      tag_24\n      jump\t// in\n        /* \"tests/Simple_storage_test.sol\":913:1035  function checkMsgValue() public payable returns (bool) {... */\n    tag_8:\n        /* \"tests/Simple_storage_test.sol\":985:1028  Assert.equal(msg.value, 0, \"Invalid value\") */\n      mload(0x40)\n      shl(0xe5, 0x055e6bcb)\n      dup2\n      mstore\n        /* \"tests/Simple_storage_test.sol\":998:1007  msg.value */\n      callvalue\n        /* \"tests/Simple_storage_test.sol\":985:1028  Assert.equal(msg.value, 0, \"Invalid value\") */\n      0x04\n      dup3\n      add\n        /* \"#utility.yul\":462:487   */\n      mstore\n        /* \"tests/Simple_storage_test.sol\":962:966  bool */\n      0x00\n        /* \"#utility.yul\":503:521   */\n      0x24\n      dup3\n      add\n        /* \"#utility.yul\":496:530   */\n      dup2\n      swap1\n      mstore\n        /* \"#utility.yul\":566:568   */\n      0x60\n        /* \"#utility.yul\":546:564   */\n      0x44\n      dup4\n      add\n        /* \"#utility.yul\":539:569   */\n      mstore\n        /* \"#utility.yul\":605:607   */\n      0x0d\n        /* \"#utility.yul\":585:603   */\n      0x64\n      dup4\n      add\n        /* \"#utility.yul\":578:608   */\n      mstore\n      shl(0x98, 0x496e76616c69642076616c7565)\n        /* \"#utility.yul\":624:643   */\n      0x84\n      dup4\n      add\n        /* \"#utility.yul\":617:661   */\n      mstore\n        /* \"tests/Simple_storage_test.sol\":962:966  bool */\n      swap1\n        /* \"tests/Simple_storage_test.sol\":985:991  Assert */\n      linkerSymbol(\"acbfb1c35000d78352310b16a054a6b1066124b9c6f054b10c085f549bff80c6\")\n      swap1\n        /* \"tests/Simple_storage_test.sol\":985:997  Assert.equal */\n      0xabcd7960\n      swap1\n        /* \"#utility.yul\":678:697   */\n      0xa4\n      add\n        /* \"tests/Simple_storage_test.sol\":985:1028  Assert.equal(msg.value, 0, \"Invalid value\") */\n    tag_27:\n      0x20\n      mload(0x40)\n      dup1\n      dup4\n      sub\n      dup2\n      dup7\n      gas\n      delegatecall\n      iszero\n      dup1\n      iszero\n      tag_30\n      jumpi\n      returndatasize\n      0x00\n      dup1\n      returndatacopy\n      revert(0x00, returndatasize)\n    tag_30:\n      pop\n      pop\n      pop\n      pop\n      mload(0x40)\n      returndatasize\n      not(0x1f)\n      0x1f\n      dup3\n      add\n      and\n      dup3\n      add\n      dup1\n      0x40\n      mstore\n      pop\n      dup2\n      add\n      swap1\n      tag_31\n      swap2\n      swap1\n      tag_32\n      jump\t// in\n    tag_31:\n        /* \"tests/Simple_storage_test.sol\":978:1028  return Assert.equal(msg.value, 0, \"Invalid value\") */\n      swap1\n      pop\n        /* \"tests/Simple_storage_test.sol\":913:1035  function checkMsgValue() public payable returns (bool) {... */\n      swap1\n      jump\t// out\n        /* \"tests/Simple_storage_test.sol\":746:889  function checkMsgSender() public returns (bool) {... */\n    tag_13:\n        /* \"tests/Simple_storage_test.sol\":788:792  bool */\n      0x00\n        /* \"tests/Simple_storage_test.sol\":811:817  Assert */\n      linkerSymbol(\"acbfb1c35000d78352310b16a054a6b1066124b9c6f054b10c085f549bff80c6\")\n        /* \"tests/Simple_storage_test.sol\":811:823  Assert.equal */\n      0xbfba5dd6\n        /* \"tests/Simple_storage_test.sol\":824:834  msg.sender */\n      caller\n        /* \"tests/Simple_storage_test.sol\":836:849  TestsAccounts */\n      linkerSymbol(\"1068a87eb54ed04c4e435de35b2ebf536f41f3ff436b4a9bd78b8044f97a1889\")\n        /* \"tests/Simple_storage_test.sol\":836:860  TestsAccounts.getAccount */\n      0xce88b145\n        /* \"tests/Simple_storage_test.sol\":861:862  0 */\n      0x00\n        /* \"tests/Simple_storage_test.sol\":836:863  TestsAccounts.getAccount(0) */\n      mload(0x40)\n      dup3\n      0xffffffff\n      and\n      0xe0\n      shl\n      dup2\n      mstore\n      0x04\n      add\n      tag_34\n      swap2\n        /* \"#utility.yul\":1152:1177   */\n      dup2\n      mstore\n        /* \"#utility.yul\":1140:1142   */\n      0x20\n        /* \"#utility.yul\":1125:1143   */\n      add\n      swap1\n        /* \"#utility.yul\":990:1183   */\n      jump\n        /* \"tests/Simple_storage_test.sol\":836:863  TestsAccounts.getAccount(0) */\n    tag_34:\n      0x20\n      mload(0x40)\n      dup1\n      dup4\n      sub\n      dup2\n      dup7\n      gas\n      delegatecall\n      iszero\n      dup1\n      iszero\n      tag_37\n      jumpi\n      returndatasize\n      0x00\n      dup1\n      returndatacopy\n      revert(0x00, returndatasize)\n    tag_37:\n      pop\n      pop\n      pop\n      pop\n      mload(0x40)\n      returndatasize\n      not(0x1f)\n      0x1f\n      dup3\n      add\n      and\n      dup3\n      add\n      dup1\n      0x40\n      mstore\n      pop\n      dup2\n      add\n      swap1\n      tag_38\n      swap2\n      swap1\n      tag_39\n      jump\t// in\n    tag_38:\n        /* \"tests/Simple_storage_test.sol\":811:882  Assert.equal(msg.sender, TestsAccounts.getAccount(0), \"Invalid sender\") */\n      mload(0x40)\n      not(sub(shl(0xe0, 0x01), 0x01))\n      0xe0\n      dup6\n      swap1\n      shl\n      and\n      dup2\n      mstore\n      sub(shl(0xa0, 0x01), 0x01)\n        /* \"#utility.yul\":1787:1802   */\n      swap3\n      dup4\n      and\n        /* \"tests/Simple_storage_test.sol\":811:882  Assert.equal(msg.sender, TestsAccounts.getAccount(0), \"Invalid sender\") */\n      0x04\n      dup3\n      add\n        /* \"#utility.yul\":1769:1803   */\n      mstore\n        /* \"#utility.yul\":1839:1854   */\n      swap2\n      and\n        /* \"#utility.yul\":1819:1837   */\n      0x24\n      dup3\n      add\n        /* \"#utility.yul\":1812:1855   */\n      mstore\n        /* \"#utility.yul\":1891:1893   */\n      0x60\n        /* \"#utility.yul\":1871:1889   */\n      0x44\n      dup3\n      add\n        /* \"#utility.yul\":1864:1894   */\n      mstore\n        /* \"#utility.yul\":1930:1932   */\n      0x0e\n        /* \"#utility.yul\":1910:1928   */\n      0x64\n      dup3\n      add\n        /* \"#utility.yul\":1903:1933   */\n      mstore\n      shl(0x91, 0x24b73b30b634b21039b2b73232b9)\n        /* \"#utility.yul\":1949:1968   */\n      0x84\n      dup3\n      add\n        /* \"#utility.yul\":1942:1987   */\n      mstore\n        /* \"#utility.yul\":2004:2023   */\n      0xa4\n      add\n        /* \"tests/Simple_storage_test.sol\":811:882  Assert.equal(msg.sender, TestsAccounts.getAccount(0), \"Invalid sender\") */\n      tag_27\n        /* \"#utility.yul\":1483:2029   */\n      jump\n        /* \"tests/Simple_storage_test.sol\":266:336  function beforeEach() public {... */\n    tag_17:\n        /* \"tests/Simple_storage_test.sol\":310:329  new SimpleStorage() */\n      mload(0x40)\n      tag_46\n      swap1\n      tag_47\n      jump\t// in\n    tag_46:\n      mload(0x40)\n      dup1\n      swap2\n      sub\n      swap1\n      0x00\n      create\n      dup1\n      iszero\n      dup1\n      iszero\n      tag_48\n      jumpi\n      returndatasize\n      0x00\n      dup1\n      returndatacopy\n      revert(0x00, returndatasize)\n    tag_48:\n      pop\n        /* \"tests/Simple_storage_test.sol\":305:307  ss */\n      0x00\n        /* \"tests/Simple_storage_test.sol\":305:329  ss = new SimpleStorage() */\n      dup1\n      sload\n      not(sub(shl(0xa0, 0x01), 0x01))\n      and\n      sub(shl(0xa0, 0x01), 0x01)\n      swap3\n      swap1\n      swap3\n      and\n      swap2\n      swap1\n      swap2\n      or\n      swap1\n      sstore\n        /* \"tests/Simple_storage_test.sol\":266:336  function beforeEach() public {... */\n      jump\t// out\n        /* \"tests/Simple_storage_test.sol\":389:526  function initialValueShouldBe_0() public returns (bool) {... */\n    tag_20:\n        /* \"tests/Simple_storage_test.sol\":439:443  bool */\n      0x00\n        /* \"tests/Simple_storage_test.sol\":462:468  Assert */\n      linkerSymbol(\"acbfb1c35000d78352310b16a054a6b1066124b9c6f054b10c085f549bff80c6\")\n        /* \"tests/Simple_storage_test.sol\":462:474  Assert.equal */\n      0xabcd7960\n        /* \"tests/Simple_storage_test.sol\":475:477  ss */\n      0x00\n      dup1\n      sload\n      swap1\n      0x0100\n      exp\n      swap1\n      div\n      sub(shl(0xa0, 0x01), 0x01)\n      and\n      sub(shl(0xa0, 0x01), 0x01)\n        /* \"tests/Simple_storage_test.sol\":475:481  ss.get */\n      and\n      0x6d4ce63c\n        /* \"tests/Simple_storage_test.sol\":475:483  ss.get() */\n      mload(0x40)\n      dup2\n      0xffffffff\n      and\n      0xe0\n      shl\n      dup2\n      mstore\n      0x04\n      add\n      0x20\n      mload(0x40)\n      dup1\n      dup4\n      sub\n      dup2\n      dup7\n      gas\n      staticcall\n      iszero\n      dup1\n      iszero\n      tag_51\n      jumpi\n      returndatasize\n      0x00\n      dup1\n      returndatacopy\n      revert(0x00, returndatasize)\n    tag_51:\n      pop\n      pop\n      pop\n      pop\n      mload(0x40)\n      returndatasize\n      not(0x1f)\n      0x1f\n      dup3\n      add\n      and\n      dup3\n      add\n      dup1\n      0x40\n      mstore\n      pop\n      dup2\n      add\n      swap1\n      tag_52\n      swap2\n      swap1\n      tag_53\n      jump\t// in\n    tag_52:\n        /* \"tests/Simple_storage_test.sol\":462:519  Assert.equal(ss.get(), 0, \"initial value is not correct\") */\n      mload(0x40)\n      not(sub(shl(0xe0, 0x01), 0x01))\n      0xe0\n      dup5\n      swap1\n      shl\n      and\n      dup2\n      mstore\n      0x04\n      dup2\n      add\n        /* \"#utility.yul\":2479:2504   */\n      swap2\n      swap1\n      swap2\n      mstore\n        /* \"tests/Simple_storage_test.sol\":485:486  0 */\n      0x00\n        /* \"#utility.yul\":2520:2538   */\n      0x24\n      dup3\n      add\n        /* \"#utility.yul\":2513:2547   */\n      mstore\n        /* \"#utility.yul\":2583:2585   */\n      0x60\n        /* \"#utility.yul\":2563:2581   */\n      0x44\n      dup3\n      add\n        /* \"#utility.yul\":2556:2586   */\n      mstore\n        /* \"#utility.yul\":2622:2624   */\n      0x1c\n        /* \"#utility.yul\":2602:2620   */\n      0x64\n      dup3\n      add\n        /* \"#utility.yul\":2595:2625   */\n      mstore\n        /* \"#utility.yul\":2662:2692   */\n      0x696e697469616c2076616c7565206973206e6f7420636f727265637400000000\n        /* \"#utility.yul\":2641:2660   */\n      0x84\n      dup3\n      add\n        /* \"#utility.yul\":2634:2693   */\n      mstore\n        /* \"#utility.yul\":2710:2729   */\n      0xa4\n      add\n        /* \"tests/Simple_storage_test.sol\":462:519  Assert.equal(ss.get(), 0, \"initial value is not correct\") */\n      tag_27\n        /* \"#utility.yul\":2223:2735   */\n      jump\n        /* \"tests/Simple_storage_test.sol\":573:713  function valueIsSet_100() public returns (bool) {... */\n    tag_24:\n        /* \"tests/Simple_storage_test.sol\":615:619  bool */\n      0x00\n        /* \"tests/Simple_storage_test.sol\":631:633  ss */\n      dup1\n      sload\n        /* \"tests/Simple_storage_test.sol\":631:642  ss.set(100) */\n      mload(0x40)\n      shl(0xe0, 0x60fe47b1)\n      dup2\n      mstore\n        /* \"tests/Simple_storage_test.sol\":638:641  100 */\n      0x64\n        /* \"tests/Simple_storage_test.sol\":631:642  ss.set(100) */\n      0x04\n      dup3\n      add\n        /* \"#utility.yul\":1152:1177   */\n      mstore\n      sub(shl(0xa0, 0x01), 0x01)\n        /* \"tests/Simple_storage_test.sol\":631:633  ss */\n      swap1\n      swap2\n      and\n      swap1\n        /* \"tests/Simple_storage_test.sol\":631:637  ss.set */\n      0x60fe47b1\n      swap1\n        /* \"#utility.yul\":1125:1143   */\n      0x24\n      add\n        /* \"tests/Simple_storage_test.sol\":631:642  ss.set(100) */\n      0x00\n      mload(0x40)\n      dup1\n      dup4\n      sub\n      dup2\n      0x00\n      dup8\n      dup1\n      extcodesize\n      iszero\n      dup1\n      iszero\n      tag_62\n      jumpi\n      0x00\n      dup1\n      revert\n    tag_62:\n      pop\n      gas\n      call\n      iszero\n      dup1\n      iszero\n      tag_64\n      jumpi\n      returndatasize\n      0x00\n      dup1\n      returndatacopy\n      revert(0x00, returndatasize)\n    tag_64:\n      pop\n      pop\n      pop\n      pop\n        /* \"tests/Simple_storage_test.sol\":659:665  Assert */\n      linkerSymbol(\"acbfb1c35000d78352310b16a054a6b1066124b9c6f054b10c085f549bff80c6\")\n        /* \"tests/Simple_storage_test.sol\":659:671  Assert.equal */\n      0xabcd7960\n        /* \"tests/Simple_storage_test.sol\":672:674  ss */\n      0x00\n      dup1\n      sload\n      swap1\n      0x0100\n      exp\n      swap1\n      div\n      sub(shl(0xa0, 0x01), 0x01)\n      and\n      sub(shl(0xa0, 0x01), 0x01)\n        /* \"tests/Simple_storage_test.sol\":672:678  ss.get */\n      and\n      0x6d4ce63c\n        /* \"tests/Simple_storage_test.sol\":672:680  ss.get() */\n      mload(0x40)\n      dup2\n      0xffffffff\n      and\n      0xe0\n      shl\n      dup2\n      mstore\n      0x04\n      add\n      0x20\n      mload(0x40)\n      dup1\n      dup4\n      sub\n      dup2\n      dup7\n      gas\n      staticcall\n      iszero\n      dup1\n      iszero\n      tag_66\n      jumpi\n      returndatasize\n      0x00\n      dup1\n      returndatacopy\n      revert(0x00, returndatasize)\n    tag_66:\n      pop\n      pop\n      pop\n      pop\n      mload(0x40)\n      returndatasize\n      not(0x1f)\n      0x1f\n      dup3\n      add\n      and\n      dup3\n      add\n      dup1\n      0x40\n      mstore\n      pop\n      dup2\n      add\n      swap1\n      tag_67\n      swap2\n      swap1\n      tag_53\n      jump\t// in\n    tag_67:\n        /* \"tests/Simple_storage_test.sol\":659:706  Assert.equal(ss.get(), 100, \"value is not 100\") */\n      mload(0x40)\n      not(sub(shl(0xe0, 0x01), 0x01))\n      0xe0\n      dup5\n      swap1\n      shl\n      and\n      dup2\n      mstore\n      0x04\n      dup2\n      add\n        /* \"#utility.yul\":3190:3215   */\n      swap2\n      swap1\n      swap2\n      mstore\n        /* \"tests/Simple_storage_test.sol\":682:685  100 */\n      0x64\n        /* \"#utility.yul\":3231:3249   */\n      0x24\n      dup3\n      add\n        /* \"#utility.yul\":3224:3258   */\n      dup2\n      swap1\n      mstore\n        /* \"#utility.yul\":3294:3296   */\n      0x60\n        /* \"#utility.yul\":3274:3292   */\n      0x44\n      dup4\n      add\n        /* \"#utility.yul\":3267:3297   */\n      mstore\n        /* \"#utility.yul\":3333:3335   */\n      0x10\n        /* \"#utility.yul\":3313:3331   */\n      swap1\n      dup3\n      add\n        /* \"#utility.yul\":3306:3336   */\n      mstore\n      shl(0x84, 0x076616c7565206973206e6f742031303)\n        /* \"#utility.yul\":3352:3371   */\n      0x84\n      dup3\n      add\n        /* \"#utility.yul\":3345:3392   */\n      mstore\n        /* \"#utility.yul\":3409:3428   */\n      0xa4\n      add\n        /* \"tests/Simple_storage_test.sol\":659:706  Assert.equal(ss.get(), 100, \"value is not 100\") */\n      tag_27\n        /* \"#utility.yul\":2932:3434   */\n      jump\n    tag_47:\n      dataSize(sub_0)\n      dup1\n      dataOffset(sub_0)\n      dup4\n      codecopy\n      add\n      swap1\n      jump\t// out\n        /* \"#utility.yul\":708:985   */\n    tag_32:\n        /* \"#utility.yul\":775:781   */\n      0x00\n        /* \"#utility.yul\":828:830   */\n      0x20\n        /* \"#utility.yul\":816:825   */\n      dup3\n        /* \"#utility.yul\":807:814   */\n      dup5\n        /* \"#utility.yul\":803:826   */\n      sub\n        /* \"#utility.yul\":799:831   */\n      slt\n        /* \"#utility.yul\":796:848   */\n      iszero\n      tag_77\n      jumpi\n        /* \"#utility.yul\":844:845   */\n      0x00\n        /* \"#utility.yul\":841:842   */\n      dup1\n        /* \"#utility.yul\":834:846   */\n      revert\n        /* \"#utility.yul\":796:848   */\n    tag_77:\n        /* \"#utility.yul\":876:885   */\n      dup2\n        /* \"#utility.yul\":870:886   */\n      mload\n        /* \"#utility.yul\":929:934   */\n      dup1\n        /* \"#utility.yul\":922:935   */\n      iszero\n        /* \"#utility.yul\":915:936   */\n      iszero\n        /* \"#utility.yul\":908:913   */\n      dup2\n        /* \"#utility.yul\":905:937   */\n      eq\n        /* \"#utility.yul\":895:955   */\n      tag_78\n      jumpi\n        /* \"#utility.yul\":951:952   */\n      0x00\n        /* \"#utility.yul\":948:949   */\n      dup1\n        /* \"#utility.yul\":941:953   */\n      revert\n        /* \"#utility.yul\":895:955   */\n    tag_78:\n        /* \"#utility.yul\":974:979   */\n      swap4\n        /* \"#utility.yul\":708:985   */\n      swap3\n      pop\n      pop\n      pop\n      jump\t// out\n        /* \"#utility.yul\":1188:1478   */\n    tag_39:\n        /* \"#utility.yul\":1258:1264   */\n      0x00\n        /* \"#utility.yul\":1311:1313   */\n      0x20\n        /* \"#utility.yul\":1299:1308   */\n      dup3\n        /* \"#utility.yul\":1290:1297   */\n      dup5\n        /* \"#utility.yul\":1286:1309   */\n      sub\n        /* \"#utility.yul\":1282:1314   */\n      slt\n        /* \"#utility.yul\":1279:1331   */\n      iszero\n      tag_81\n      jumpi\n        /* \"#utility.yul\":1327:1328   */\n      0x00\n        /* \"#utility.yul\":1324:1325   */\n      dup1\n        /* \"#utility.yul\":1317:1329   */\n      revert\n        /* \"#utility.yul\":1279:1331   */\n    tag_81:\n        /* \"#utility.yul\":1353:1369   */\n      dup2\n      mload\n      sub(shl(0xa0, 0x01), 0x01)\n        /* \"#utility.yul\":1398:1429   */\n      dup2\n      and\n        /* \"#utility.yul\":1388:1430   */\n      dup2\n      eq\n        /* \"#utility.yul\":1378:1448   */\n      tag_78\n      jumpi\n        /* \"#utility.yul\":1444:1445   */\n      0x00\n        /* \"#utility.yul\":1441:1442   */\n      dup1\n        /* \"#utility.yul\":1434:1446   */\n      revert\n        /* \"#utility.yul\":2034:2218   */\n    tag_53:\n        /* \"#utility.yul\":2104:2110   */\n      0x00\n        /* \"#utility.yul\":2157:2159   */\n      0x20\n        /* \"#utility.yul\":2145:2154   */\n      dup3\n        /* \"#utility.yul\":2136:2143   */\n      dup5\n        /* \"#utility.yul\":2132:2155   */\n      sub\n        /* \"#utility.yul\":2128:2160   */\n      slt\n        /* \"#utility.yul\":2125:2177   */\n      iszero\n      tag_85\n      jumpi\n        /* \"#utility.yul\":2173:2174   */\n      0x00\n        /* \"#utility.yul\":2170:2171   */\n      dup1\n        /* \"#utility.yul\":2163:2175   */\n      revert\n        /* \"#utility.yul\":2125:2177   */\n    tag_85:\n      pop\n        /* \"#utility.yul\":2196:2212   */\n      mload\n      swap2\n        /* \"#utility.yul\":2034:2218   */\n      swap1\n      pop\n      jump\t// out\n    stop\n\n    sub_0: assembly {\n            /* \"contracts/Simple_storage.sol\":70:329  contract SimpleStorage {... */\n          mstore(0x40, 0x80)\n            /* \"contracts/Simple_storage.sol\":128:173  constructor() {... */\n          callvalue\n          dup1\n          iszero\n          tag_1\n          jumpi\n          0x00\n          dup1\n          revert\n        tag_1:\n          pop\n            /* \"contracts/Simple_storage.sol\":165:166  0 */\n          0x00\n            /* \"contracts/Simple_storage.sol\":152:166  storedData = 0 */\n          dup1\n          sstore\n            /* \"contracts/Simple_storage.sol\":70:329  contract SimpleStorage {... */\n          dataSize(sub_0)\n          dup1\n          dataOffset(sub_0)\n          0x00\n          codecopy\n          0x00\n          return\n        stop\n\n        sub_0: assembly {\n                /* \"contracts/Simple_storage.sol\":70:329  contract SimpleStorage {... */\n              mstore(0x40, 0x80)\n              callvalue\n              dup1\n              iszero\n              tag_1\n              jumpi\n              0x00\n              dup1\n              revert\n            tag_1:\n              pop\n              jumpi(tag_2, lt(calldatasize, 0x04))\n              shr(0xe0, calldataload(0x00))\n              dup1\n              0x2a1afcd9\n              eq\n              tag_3\n              jumpi\n              dup1\n              0x60fe47b1\n              eq\n              tag_4\n              jumpi\n              dup1\n              0x6d4ce63c\n              eq\n              tag_5\n              jumpi\n            tag_2:\n              0x00\n              dup1\n              revert\n                /* \"contracts/Simple_storage.sol\":99:121  uint public storedData */\n            tag_3:\n              tag_6\n              sload(0x00)\n              dup2\n              jump\n            tag_6:\n              mload(0x40)\n                /* \"#utility.yul\":160:185   */\n              swap1\n              dup2\n              mstore\n                /* \"#utility.yul\":148:150   */\n              0x20\n                /* \"#utility.yul\":133:151   */\n              add\n                /* \"contracts/Simple_storage.sol\":99:121  uint public storedData */\n              mload(0x40)\n              dup1\n              swap2\n              sub\n              swap1\n              return\n                /* \"contracts/Simple_storage.sol\":179:238  function set(uint x) public {... */\n            tag_4:\n              tag_10\n              tag_11\n              calldatasize\n              0x04\n              tag_12\n              jump\t// in\n            tag_11:\n                /* \"contracts/Simple_storage.sol\":217:227  storedData */\n              0x00\n                /* \"contracts/Simple_storage.sol\":217:231  storedData = x */\n              sstore\n                /* \"contracts/Simple_storage.sol\":179:238  function set(uint x) public {... */\n              jump\n            tag_10:\n              stop\n                /* \"contracts/Simple_storage.sol\":244:327  function get() public view returns (uint retVal) {... */\n            tag_5:\n                /* \"contracts/Simple_storage.sol\":280:291  uint retVal */\n              0x00\n                /* \"contracts/Simple_storage.sol\":310:320  storedData */\n              sload\n                /* \"contracts/Simple_storage.sol\":244:327  function get() public view returns (uint retVal) {... */\n              jump(tag_6)\n                /* \"#utility.yul\":196:376   */\n            tag_12:\n                /* \"#utility.yul\":255:261   */\n              0x00\n                /* \"#utility.yul\":308:310   */\n              0x20\n                /* \"#utility.yul\":296:305   */\n              dup3\n                /* \"#utility.yul\":287:294   */\n              dup5\n                /* \"#utility.yul\":283:306   */\n              sub\n                /* \"#utility.yul\":279:311   */\n              slt\n                /* \"#utility.yul\":276:328   */\n              iszero\n              tag_22\n              jumpi\n                /* \"#utility.yul\":324:325   */\n              0x00\n                /* \"#utility.yul\":321:322   */\n              dup1\n                /* \"#utility.yul\":314:326   */\n              revert\n                /* \"#utility.yul\":276:328   */\n            tag_22:\n              pop\n                /* \"#utility.yul\":347:370   */\n              calldataload\n              swap2\n                /* \"#utility.yul\":196:376   */\n              swap1\n              pop\n              jump\t// out\n\n            auxdata: 0xa26469706673582212202f0793cb2868fb81e96e69429dad96e3f427aed60fa9f60b84ae15ea1d1f60f364736f6c63430008160033\n        }\n    }\n\n    auxdata: 0xa26469706673582212205069ee0e8b7a2dc1453c7b57d54c5e1c5b88de24dbdc672ace2ae4aad0e9cf8064736f6c63430008160033\n}\n",
				"bytecode": {
					"linkReferences": {
						"remix_accounts.sol": {
							"TestsAccounts": [
								{
									"length": 20,
									"start": 410
								}
							]
						},
						"remix_tests.sol": {
							"Assert": [
								{
									"length": 20,
									"start": 282
								},
								{
									"length": 20,
									"start": 383
								},
								{
									"length": 20,
									"start": 690
								},
								{
									"length": 20,
									"start": 1013
								}
							]
						}
					},
					"object": "608060405234801561000f575f80fd5b506106338061001d5f395ff3fe608060405260043610610049575f3560e01c80632b7647811461004d5780634cd3d5ca146100695780636331e7d41461007d57806384b6fac514610093578063f60c7521146100a7575b5f80fd5b6100556100bb565b604051901515815260200160405180910390f35b348015610074575f80fd5b5061005561015f565b348015610088575f80fd5b5061009161024b565b005b34801561009e575f80fd5b50610055610292565b3480156100b2575f80fd5b5061005561037d565b60405163055e6bcb60e51b81523460048201525f6024820181905260606044830152600d60648301526c496e76616c69642076616c756560981b60848301529073__$acbfb1c35000d78352310b16a054a6b106$__9063abcd79609060a4015b602060405180830381865af4158015610136573d5f803e3d5ffd5b505050506040513d601f19601f8201168201806040525081019061015a91906104c1565b905090565b5f73__$acbfb1c35000d78352310b16a054a6b106$__63bfba5dd63373__$1068a87eb54ed04c4e435de35b2ebf536f$__63ce88b1455f6040518263ffffffff1660e01b81526004016101b491815260200190565b602060405180830381865af41580156101cf573d5f803e3d5ffd5b505050506040513d601f19601f820116820180604052508101906101f391906104e7565b6040516001600160e01b031960e085901b1681526001600160a01b0392831660048201529116602482015260606044820152600e60648201526d24b73b30b634b21039b2b73232b960911b608482015260a40161011b565b604051610257906104b5565b604051809103905ff080158015610270573d5f803e3d5ffd5b505f80546001600160a01b0319166001600160a01b0392909216919091179055565b5f73__$acbfb1c35000d78352310b16a054a6b106$__63abcd79605f8054906101000a90046001600160a01b03166001600160a01b0316636d4ce63c6040518163ffffffff1660e01b8152600401602060405180830381865afa1580156102fb573d5f803e3d5ffd5b505050506040513d601f19601f8201168201806040525081019061031f919061050d565b6040516001600160e01b031960e084901b16815260048101919091525f602482015260606044820152601c60648201527f696e697469616c2076616c7565206973206e6f7420636f727265637400000000608482015260a40161011b565b5f80546040516360fe47b160e01b8152606460048201526001600160a01b03909116906360fe47b1906024015f604051808303815f87803b1580156103c0575f80fd5b505af11580156103d2573d5f803e3d5ffd5b5050505073__$acbfb1c35000d78352310b16a054a6b106$__63abcd79605f8054906101000a90046001600160a01b03166001600160a01b0316636d4ce63c6040518163ffffffff1660e01b8152600401602060405180830381865afa15801561043e573d5f803e3d5ffd5b505050506040513d601f19601f82011682018060405250810190610462919061050d565b6040516001600160e01b031960e084901b1681526004810191909152606460248201819052606060448301526010908201526f076616c7565206973206e6f74203130360841b608482015260a40161011b565b60d98061052583390190565b5f602082840312156104d1575f80fd5b815180151581146104e0575f80fd5b9392505050565b5f602082840312156104f7575f80fd5b81516001600160a01b03811681146104e0575f80fd5b5f6020828403121561051d575f80fd5b505191905056fe608060405234801561000f575f80fd5b505f805560ba8061001f5f395ff3fe6080604052348015600e575f80fd5b5060043610603a575f3560e01c80632a1afcd914603e57806360fe47b11460575780636d4ce63c146068575b5f80fd5b60455f5481565b60405190815260200160405180910390f35b60666062366004606e565b5f55565b005b5f546045565b5f60208284031215607d575f80fd5b503591905056fea26469706673582212202f0793cb2868fb81e96e69429dad96e3f427aed60fa9f60b84ae15ea1d1f60f364736f6c63430008160033a26469706673582212205069ee0e8b7a2dc1453c7b57d54c5e1c5b88de24dbdc672ace2ae4aad0e9cf8064736f6c63430008160033",
					"opcodes": "PUSH1 0x80 PUSH1 0x40 MSTORE CALLVALUE DUP1 ISZERO PUSH2 0xF JUMPI PUSH0 DUP1 REVERT JUMPDEST POP PUSH2 0x633 DUP1 PUSH2 0x1D PUSH0 CODECOPY PUSH0 RETURN INVALID PUSH1 0x80 PUSH1 0x40 MSTORE PUSH1 0x4 CALLDATASIZE LT PUSH2 0x49 JUMPI PUSH0 CALLDATALOAD PUSH1 0xE0 SHR DUP1 PUSH4 0x2B764781 EQ PUSH2 0x4D JUMPI DUP1 PUSH4 0x4CD3D5CA EQ PUSH2 0x69 JUMPI DUP1 PUSH4 0x6331E7D4 EQ PUSH2 0x7D JUMPI DUP1 PUSH4 0x84B6FAC5 EQ PUSH2 0x93 JUMPI DUP1 PUSH4 0xF60C7521 EQ PUSH2 0xA7 JUMPI JUMPDEST PUSH0 DUP1 REVERT JUMPDEST PUSH2 0x55 PUSH2 0xBB JUMP JUMPDEST PUSH1 0x40 MLOAD SWAP1 ISZERO ISZERO DUP2 MSTORE PUSH1 0x20 ADD PUSH1 0x40 MLOAD DUP1 SWAP2 SUB SWAP1 RETURN JUMPDEST CALLVALUE DUP1 ISZERO PUSH2 0x74 JUMPI PUSH0 DUP1 REVERT JUMPDEST POP PUSH2 0x55 PUSH2 0x15F JUMP JUMPDEST CALLVALUE DUP1 ISZERO PUSH2 0x88 JUMPI PUSH0 DUP1 REVERT JUMPDEST POP PUSH2 0x91 PUSH2 0x24B JUMP JUMPDEST STOP JUMPDEST CALLVALUE DUP1 ISZERO PUSH2 0x9E JUMPI PUSH0 DUP1 REVERT JUMPDEST POP PUSH2 0x55 PUSH2 0x292 JUMP JUMPDEST CALLVALUE DUP1 ISZERO PUSH2 0xB2 JUMPI PUSH0 DUP1 REVERT JUMPDEST POP PUSH2 0x55 PUSH2 0x37D JUMP JUMPDEST PUSH1 0x40 MLOAD PUSH4 0x55E6BCB PUSH1 0xE5 SHL DUP2 MSTORE CALLVALUE PUSH1 0x4 DUP3 ADD MSTORE PUSH0 PUSH1 0x24 DUP3 ADD DUP2 SWAP1 MSTORE PUSH1 0x60 PUSH1 0x44 DUP4 ADD MSTORE PUSH1 0xD PUSH1 0x64 DUP4 ADD MSTORE PUSH13 0x496E76616C69642076616C7565 PUSH1 0x98 SHL PUSH1 0x84 DUP4 ADD MSTORE SWAP1 PUSH20 0x0 SWAP1 PUSH4 0xABCD7960 SWAP1 PUSH1 0xA4 ADD JUMPDEST PUSH1 0x20 PUSH1 0x40 MLOAD DUP1 DUP4 SUB DUP2 DUP7 GAS DELEGATECALL ISZERO DUP1 ISZERO PUSH2 0x136 JUMPI RETURNDATASIZE PUSH0 DUP1 RETURNDATACOPY RETURNDATASIZE PUSH0 REVERT JUMPDEST POP POP POP POP PUSH1 0x40 MLOAD RETURNDATASIZE PUSH1 0x1F NOT PUSH1 0x1F DUP3 ADD AND DUP3 ADD DUP1 PUSH1 0x40 MSTORE POP DUP2 ADD SWAP1 PUSH2 0x15A SWAP2 SWAP1 PUSH2 0x4C1 JUMP JUMPDEST SWAP1 POP SWAP1 JUMP JUMPDEST PUSH0 PUSH20 0x0 PUSH4 0xBFBA5DD6 CALLER PUSH20 0x0 PUSH4 0xCE88B145 PUSH0 PUSH1 0x40 MLOAD DUP3 PUSH4 0xFFFFFFFF AND PUSH1 0xE0 SHL DUP2 MSTORE PUSH1 0x4 ADD PUSH2 0x1B4 SWAP2 DUP2 MSTORE PUSH1 0x20 ADD SWAP1 JUMP JUMPDEST PUSH1 0x20 PUSH1 0x40 MLOAD DUP1 DUP4 SUB DUP2 DUP7 GAS DELEGATECALL ISZERO DUP1 ISZERO PUSH2 0x1CF JUMPI RETURNDATASIZE PUSH0 DUP1 RETURNDATACOPY RETURNDATASIZE PUSH0 REVERT JUMPDEST POP POP POP POP PUSH1 0x40 MLOAD RETURNDATASIZE PUSH1 0x1F NOT PUSH1 0x1F DUP3 ADD AND DUP3 ADD DUP1 PUSH1 0x40 MSTORE POP DUP2 ADD SWAP1 PUSH2 0x1F3 SWAP2 SWAP1 PUSH2 0x4E7 JUMP JUMPDEST PUSH1 0x40 MLOAD PUSH1 0x1 PUSH1 0x1 PUSH1 0xE0 SHL SUB NOT PUSH1 0xE0 DUP6 SWAP1 SHL AND DUP2 MSTORE PUSH1 0x1 PUSH1 0x1 PUSH1 0xA0 SHL SUB SWAP3 DUP4 AND PUSH1 0x4 DUP3 ADD MSTORE SWAP2 AND PUSH1 0x24 DUP3 ADD MSTORE PUSH1 0x60 PUSH1 0x44 DUP3 ADD MSTORE PUSH1 0xE PUSH1 0x64 DUP3 ADD MSTORE PUSH14 0x24B73B30B634B21039B2B73232B9 PUSH1 0x91 SHL PUSH1 0x84 DUP3 ADD MSTORE PUSH1 0xA4 ADD PUSH2 0x11B JUMP JUMPDEST PUSH1 0x40 MLOAD PUSH2 0x257 SWAP1 PUSH2 0x4B5 JUMP JUMPDEST PUSH1 0x40 MLOAD DUP1 SWAP2 SUB SWAP1 PUSH0 CREATE DUP1 ISZERO DUP1 ISZERO PUSH2 0x270 JUMPI RETURNDATASIZE PUSH0 DUP1 RETURNDATACOPY RETURNDATASIZE PUSH0 REVERT JUMPDEST POP PUSH0 DUP1 SLOAD PUSH1 0x1 PUSH1 0x1 PUSH1 0xA0 SHL SUB NOT AND PUSH1 0x1 PUSH1 0x1 PUSH1 0xA0 SHL SUB SWAP3 SWAP1 SWAP3 AND SWAP2 SWAP1 SWAP2 OR SWAP1 SSTORE JUMP JUMPDEST PUSH0 PUSH20 0x0 PUSH4 0xABCD7960 PUSH0 DUP1 SLOAD SWAP1 PUSH2 0x100 EXP SWAP1 DIV PUSH1 0x1 PUSH1 0x1 PUSH1 0xA0 SHL SUB AND PUSH1 0x1 PUSH1 0x1 PUSH1 0xA0 SHL SUB AND PUSH4 0x6D4CE63C PUSH1 0x40 MLOAD DUP2 PUSH4 0xFFFFFFFF AND PUSH1 0xE0 SHL DUP2 MSTORE PUSH1 0x4 ADD PUSH1 0x20 PUSH1 0x40 MLOAD DUP1 DUP4 SUB DUP2 DUP7 GAS STATICCALL ISZERO DUP1 ISZERO PUSH2 0x2FB JUMPI RETURNDATASIZE PUSH0 DUP1 RETURNDATACOPY RETURNDATASIZE PUSH0 REVERT JUMPDEST POP POP POP POP PUSH1 0x40 MLOAD RETURNDATASIZE PUSH1 0x1F NOT PUSH1 0x1F DUP3 ADD AND DUP3 ADD DUP1 PUSH1 0x40 MSTORE POP DUP2 ADD SWAP1 PUSH2 0x31F SWAP2 SWAP1 PUSH2 0x50D JUMP JUMPDEST PUSH1 0x40 MLOAD PUSH1 0x1 PUSH1 0x1 PUSH1 0xE0 SHL SUB NOT PUSH1 0xE0 DUP5 SWAP1 SHL AND DUP2 MSTORE PUSH1 0x4 DUP2 ADD SWAP2 SWAP1 SWAP2 MSTORE PUSH0 PUSH1 0x24 DUP3 ADD MSTORE PUSH1 0x60 PUSH1 0x44 DUP3 ADD MSTORE PUSH1 0x1C PUSH1 0x64 DUP3 ADD MSTORE PUSH32 0x696E697469616C2076616C7565206973206E6F7420636F727265637400000000 PUSH1 0x84 DUP3 ADD MSTORE PUSH1 0xA4 ADD PUSH2 0x11B JUMP JUMPDEST PUSH0 DUP1 SLOAD PUSH1 0x40 MLOAD PUSH4 0x60FE47B1 PUSH1 0xE0 SHL DUP2 MSTORE PUSH1 0x64 PUSH1 0x4 DUP3 ADD MSTORE PUSH1 0x1 PUSH1 0x1 PUSH1 0xA0 SHL SUB SWAP1 SWAP2 AND SWAP1 PUSH4 0x60FE47B1 SWAP1 PUSH1 0x24 ADD PUSH0 PUSH1 0x40 MLOAD DUP1 DUP4 SUB DUP2 PUSH0 DUP8 DUP1 EXTCODESIZE ISZERO DUP1 ISZERO PUSH2 0x3C0 JUMPI PUSH0 DUP1 REVERT JUMPDEST POP GAS CALL ISZERO DUP1 ISZERO PUSH2 0x3D2 JUMPI RETURNDATASIZE PUSH0 DUP1 RETURNDATACOPY RETURNDATASIZE PUSH0 REVERT JUMPDEST POP POP POP POP PUSH20 0x0 PUSH4 0xABCD7960 PUSH0 DUP1 SLOAD SWAP1 PUSH2 0x100 EXP SWAP1 DIV PUSH1 0x1 PUSH1 0x1 PUSH1 0xA0 SHL SUB AND PUSH1 0x1 PUSH1 0x1 PUSH1 0xA0 SHL SUB AND PUSH4 0x6D4CE63C PUSH1 0x40 MLOAD DUP2 PUSH4 0xFFFFFFFF AND PUSH1 0xE0 SHL DUP2 MSTORE PUSH1 0x4 ADD PUSH1 0x20 PUSH1 0x40 MLOAD DUP1 DUP4 SUB DUP2 DUP7 GAS STATICCALL ISZERO DUP1 ISZERO PUSH2 0x43E JUMPI RETURNDATASIZE PUSH0 DUP1 RETURNDATACOPY RETURNDATASIZE PUSH0 REVERT JUMPDEST POP POP POP POP PUSH1 0x40 MLOAD RETURNDATASIZE PUSH1 0x1F NOT PUSH1 0x1F DUP3 ADD AND DUP3 ADD DUP1 PUSH1 0x40 MSTORE POP DUP2 ADD SWAP1 PUSH2 0x462 SWAP2 SWAP1 PUSH2 0x50D JUMP JUMPDEST PUSH1 0x40 MLOAD PUSH1 0x1 PUSH1 0x1 PUSH1 0xE0 SHL SUB NOT PUSH1 0xE0 DUP5 SWAP1 SHL AND DUP2 MSTORE PUSH1 0x4 DUP2 ADD SWAP2 SWAP1 SWAP2 MSTORE PUSH1 0x64 PUSH1 0x24 DUP3 ADD DUP2 SWAP1 MSTORE PUSH1 0x60 PUSH1 0x44 DUP4 ADD MSTORE PUSH1 0x10 SWAP1 DUP3 ADD MSTORE PUSH16 0x76616C7565206973206E6F742031303 PUSH1 0x84 SHL PUSH1 0x84 DUP3 ADD MSTORE PUSH1 0xA4 ADD PUSH2 0x11B JUMP JUMPDEST PUSH1 0xD9 DUP1 PUSH2 0x525 DUP4 CODECOPY ADD SWAP1 JUMP JUMPDEST PUSH0 PUSH1 0x20 DUP3 DUP5 SUB SLT ISZERO PUSH2 0x4D1 JUMPI PUSH0 DUP1 REVERT JUMPDEST DUP2 MLOAD DUP1 ISZERO ISZERO DUP2 EQ PUSH2 0x4E0 JUMPI PUSH0 DUP1 REVERT JUMPDEST SWAP4 SWAP3 POP POP POP JUMP JUMPDEST PUSH0 PUSH1 0x20 DUP3 DUP5 SUB SLT ISZERO PUSH2 0x4F7 JUMPI PUSH0 DUP1 REVERT JUMPDEST DUP2 MLOAD PUSH1 0x1 PUSH1 0x1 PUSH1 0xA0 SHL SUB DUP2 AND DUP2 EQ PUSH2 0x4E0 JUMPI PUSH0 DUP1 REVERT JUMPDEST PUSH0 PUSH1 0x20 DUP3 DUP5 SUB SLT ISZERO PUSH2 0x51D JUMPI PUSH0 DUP1 REVERT JUMPDEST POP MLOAD SWAP2 SWAP1 POP JUMP INVALID PUSH1 0x80 PUSH1 0x40 MSTORE CALLVALUE DUP1 ISZERO PUSH2 0xF JUMPI PUSH0 DUP1 REVERT JUMPDEST POP PUSH0 DUP1 SSTORE PUSH1 0xBA DUP1 PUSH2 0x1F PUSH0 CODECOPY PUSH0 RETURN INVALID PUSH1 0x80 PUSH1 0x40 MSTORE CALLVALUE DUP1 ISZERO PUSH1 0xE JUMPI PUSH0 DUP1 REVERT JUMPDEST POP PUSH1 0x4 CALLDATASIZE LT PUSH1 0x3A JUMPI PUSH0 CALLDATALOAD PUSH1 0xE0 SHR DUP1 PUSH4 0x2A1AFCD9 EQ PUSH1 0x3E JUMPI DUP1 PUSH4 0x60FE47B1 EQ PUSH1 0x57 JUMPI DUP1 PUSH4 0x6D4CE63C EQ PUSH1 0x68 JUMPI JUMPDEST PUSH0 DUP1 REVERT JUMPDEST PUSH1 0x45 PUSH0 SLOAD DUP2 JUMP JUMPDEST PUSH1 0x40 MLOAD SWAP1 DUP2 MSTORE PUSH1 0x20 ADD PUSH1 0x40 MLOAD DUP1 SWAP2 SUB SWAP1 RETURN JUMPDEST PUSH1 0x66 PUSH1 0x62 CALLDATASIZE PUSH1 0x4 PUSH1 0x6E JUMP JUMPDEST PUSH0 SSTORE JUMP JUMPDEST STOP JUMPDEST PUSH0 SLOAD PUSH1 0x45 JUMP JUMPDEST PUSH0 PUSH1 0x20 DUP3 DUP5 SUB SLT ISZERO PUSH1 0x7D JUMPI PUSH0 DUP1 REVERT JUMPDEST POP CALLDATALOAD SWAP2 SWAP1 POP JUMP INVALID LOG2 PUSH5 0x6970667358 0x22 SLT KECCAK256 0x2F SMOD SWAP4 0xCB 0x28 PUSH9 0xFB81E96E69429DAD96 0xE3 DELEGATECALL 0x27 0xAE 0xD6 0xF 0xA9 0xF6 SIGNEXTEND DUP5 0xAE ISZERO 0xEA SAR 0x1F PUSH1 0xF3 PUSH5 0x736F6C6343 STOP ADDMOD AND STOP CALLER LOG2 PUSH5 0x6970667358 0x22 SLT KECCAK256 POP PUSH10 0xEE0E8B7A2DC1453C7B57 0xD5 0x4C 0x5E SHR JUMPDEST DUP9 0xDE 0x24 0xDB 0xDC PUSH8 0x2ACE2AE4AAD0E9CF DUP1 PUSH5 0x736F6C6343 STOP ADDMOD AND STOP CALLER "
				},
				"gasEstimates": {
					"creation": {
						"codeDepositCost": "317400",
						"executionCost": "353",
						"totalCost": "317753"
					},
					"external": {
						"beforeEach()": "infinite",
						"checkMsgSender()": "infinite",
						"checkMsgValue()": "infinite",
						"initialValueShouldBe_0()": "infinite",
						"valueIsSet_100()": "infinite"
					}
				},
				"methodIdentifiers": {
					"beforeEach()": "6331e7d4",
					"checkMsgSender()": "4cd3d5ca",
					"checkMsgValue()": "2b764781",
					"initialValueShouldBe_0()": "84b6fac5",
					"valueIsSet_100()": "f60c7521"
				}
			},
			"storageLayout": {
				"storage": [
					{
						"astId": 901,
						"contract": "tests/Simple_storage_test.sol:TestsSuite",
						"label": "ss",
						"offset": 0,
						"slot": "0",
						"type": "t_contract(SimpleStorage)30"
					}
				],
				"types": {
					"t_contract(SimpleStorage)30": {
						"encoding": "inplace",
						"label": "contract SimpleStorage",
						"numberOfBytes": "20"
					}
				}
			},
			"userdoc": {
				"kind": "user",
				"methods": {
					"checkMsgSender()": {
						"notice": "#sender: account-0"
					},
					"checkMsgValue()": {
						"notice": "#value: 0"
					},
					"initialValueShouldBe_0()": {
						"notice": "Test if initial value is set correctly"
					},
					"valueIsSet_100()": {
						"notice": "Test if value is set as expected"
					}
				},
				"version": 1
			}
		}
	}
}